:020000040005F5
:2060000000400120F5700500AB6C05009F690500EF6A0500EF6A0500EF6A05000000000072
:20602000000000000000000000000000EF6A0500EF6A050000000000EF6A0500EF6A0500E8
:20604000EF6A0500EF6A0500EF6A0500EF6A0500EF6A0500EF6A0500EF6A0500EF6A050050
:20606000EF6A0500EF6A0500EF6A0500EF6A0500EF6A0500EF6A0500EF6A0500EF6A050030
:20608000EF6A0500EF6A0500EF6A0500EF6A0500EF6A0500EF6A0500EF6A0500EF6A050010
:2060A000EF6A0500EF6A0500EF6A0500EF6A0500EF6A0500EF6A0500EF6A0500EF6A0500F0
:1860C000EF6A0500EF6A0500EF6A0500EF6A0500EF6A0500EF6A050094
:2060D8002DE9F0478246484E4E4C56F80C0C9046894680082AD245480068810D28D205173B
:2060F80004F134000068006880476D1CC0F13E0110F1020F4FEAE101D8BF07218D42B8BF1D
:206118000D1C3B480068C0F30320401B102803DA0028D8BF012000E00F20364900F00F00A0
:2061380040F0F00081F84D00087801E03248306000203249324F256808603868A9692720EC
:206158008847324D304805F1300211682B460840106003F17800006820F48070A867206828
:20617800016B4FF4806088472068016B4FF4816088472068016B4FF4C0608847244901200E
:206198000860C5F88091286056F80C0C800806D2B8F1FF3F14BF40464FF040403060386834
:2061B800E8698008FCD3072000F0FAFC0228FAD1BAF1010F13D0206A164E81683046884763
:2061D8000428F8D0012804D1206A4268032130469047D5F8180220F00300C5F818022068B7
:2061F800806B8047BDE8F0871C000940B44F00500C1300500D620840FD0000400C40094009
:206218002C200940B8010010FFFFFEFE0C20084028200860004003402DE9F04FADF1640D03
:2062380000F07CFA002808BF4FF0FF3000F089804FF0FC0800244FF0FE0BC14678E0260353
:2062580034216A46304600F0D5FC9DF81020FE2A6CD19DF80C00032868D19DF80D000128F0
:2062780064D19DF81100FC2860D00B98069905464919B1F5801F59D8FE2A57D18DF86090AD
:206298002C210DAA00F0B6FC1399284600F03EFE0746B7F1FF3F49D014998F4246D8139867
:2062B800C019884242D3169928463A46C91B491C139100F0C5F910365FFA80FA18A9304686
:2062D80000F09EFBBAF1000F30D11399780BC6B2304600F039F80F99814219D160038DF8E7
:2062F80060B018A9113000F08BFB304618A900F0A3FE9DF8461031F0010003D0032918BF53
:2063180007290CD100F040FB149800F012FF06E08DF8608005F1110018A900F071FB8DF88C
:20633800608005F1100018A900F06AFB641C64B2E0B200F03DFD0446002880D500F024FB21
:20635800002019B0BDE8F08F2DE9FE4F01903D4800680C46611EB1F5B02F824628BF002012
:206378006DD2019D684300F077FE641EB4FBFAF7B4FBFAF04119C9B2029107FB0AF1641A7A
:20639800641C1FFA84F92C4600194FF0FF35C0B2A04252DB001B00F1010B0298A04207D1E4
:2063B8005FFA99F619F0FF0F1CBF761CF6B201E05FFA9AF6002E3BD00AFB04F0B046002798
:2063D8000090B81BB0F1FF3F05D10298A04202D119F0FF0001D14FF480700199A1420ABFEB
:2063F800002F00220C22904217DD1849801A5118491E11F8012F4FEA152C554005F0FF0534
:2064180008226B0832BF6D080F4B83EA5505521EF7D1401E85EA0C05EBD1009800EB0720C4
:2064380000F5807000F018FE7F1CB8F10108C8D1641CBBF1010BE4B2AFD185F0FF30BDE8DC
:20645800FE8FC046000400202083B8ED00030020304AF8B5D2F87C42B4F1FF3F08BF002485
:2064780000F0DAFD042854D1D2F878021268070F02F0FF027F2A88BF002200F0CDFD4FF01A
:20649800FF3104280AD13846012842D9801E03D0401E03D1153200E00B3251B2142938DB91
:2064B80028481D4E002510380560306C806C80471A48006820B11A480068204600F044F8D1
:2064D800184819490560194F0A686FF35B4247EA0200086016490868C0F30130012806D156
:2064F8000A681448104040F400320A600860124D0124EC613068016A142088470F4908688F
:2065180040F4E02008600E492C6008680028FCD1F8BDFEE7A0100050B00100108001284338
:20653800800520438C210840482003400000390128000940EFFFFCFC00002443002009405A
:206558000C006842940460422DE9F8438146344D354C55F8040C800807D255F8080C04F105
:206578004D01000C40F0F000087034484FF001214FF080531838DFF8AC80C0F80414008877
:20659800D3F8F0012E68016803F5F87730468847B00E03D2700E24BF02202070386842688C
:2065B80031464846904700F07DFC38B12868810C2CBF002040F3072000F03AFC1B48006822
:2065D800C0F3053188F80010410A39BF402184F823104021E174800900F0380040F460508C
:2065F800A8F85C0038688168304688471049114A0AE0105C9478131D844299BF184410F8F1
:20661800010C18444078086008684B689842FCD10228EED1084901200860BDE8F883C04626
:20663800B44F00500EB00C40096208400C14005000600C40AC7105009404604218A00C40B6
:206658002DE9F04F15460F46064615F0030FADF5827D52D12E480268EC19B5FBF2F1601E00
:20667800B0FBF2F0884248D32C2846D8CBB2B7FBF2F0B7FBF2F1C0B251437C1A1CBF401CA5
:20669800C0B24FF000081C4604EB0009B8B1DFF884B000F0EBFB40901F48303800684169D4
:2066B8006003884782464098CBF8008000F0FEFC5FFA8AF008BB641CE4B2A145E9DCB8F1C3
:2066D800000F1AD107B34FF48074BC4288BFBCB230466A46214600F08DFA70B100F0C6FB2E
:2066F800824622462946684600F0C4FC8146504600F0DCFCB9F1000F02D04FF0FF3004E083
:206718003F1B26442544E0D1404641B0BDE8F08F0004002084046042D8010010FEB52C4D85
:206738006868416906208847062000F0B3FA0128FAD16868C1694FF4A06088470127254E74
:20675800254C376020688008FCD36868C1694FF480708847376020688008FCD34FF08046C3
:20677800706920F00F0070610327376228691C4904681A4800220827134600903046019769
:20679800A0472868394609224FF0FF330A27446C00973046A047706840F00200706028690F
:2067B800026902A9304690470028F8D12868C16B1420884700F09AFC00F044FA041C02D107
:2067D80000F0E2F802E000F087F904462046FEBDB4010010282008602820084000093D00CF
:2067F800006CDC02002A4AD05FEA000C8B071CD1830722D1102A08D370B4103A78C978C0A6
:20681800103AFBD270BC103238D0042A2CD3082A05D30C2A24BF08C908C008C908C008C980
:2068380008C092072AD0920F22E00B780370491C401C521E22D08B07F7D1C30714D1830796
:20685800D8D0121F12D308C903801B0C4380001D121FF8D20AE008C903701B0A43701B0AE1
:2068780083701B0AC370001D121FF4D2121D05D00B780370491C401C521EF9D1604670474F
:2068980030B5ADF13C0DFFF749FF002839D0002034216A4600F0AEF99DF81100FE2830D11C
:2068B8000B98069905464A19B2F5801F29D800F02DFB0446B4F1FF3F23D00798844220D8F4
:2068D80006990A1982421CD328462246FFF7B8FEA8B90699600BC4B22046FFF735FDFC211D
:2068F800029D8DF83410854209D1FE208DF834000DA9204600F0A0FB079800F01AFC00F064
:2069180043F80FB030BD30B50025ADF12C0D6C0369460822204600F02BFB684600F056FBE4
:20693800012829D1204669462C2200F021FB9DF81200012803D0032818BF07281CD106994D
:20695800D1B1B1F5B02F17D80798844214D80919814211D39DF80C1003290DD19DF80D10A2
:20697800012909D19DF81110FC2905D0FF2918BFFE2901D100F0DDFB2846411C2B28CDB2EE
:20699800C5DB0BB030BDFEE7F8B5B9208DF8000000F0B4FB0121684600F0D2FA00F0A6FBEB
:2069B8000A2400F099F8002818BFB4F10104F8D14FF0805000F5DC75D0F8B801016A4FF41A
:2069D8008070884701270C4E0C4C376020688008FCD32868016A4FF4A06088473760206864
:2069F8008008FCD32868816906208847062000F051F90228FAD1F8BD28200860282008406F
:206A18002DE9FC410F46054601264FF0020800F097F850BB00F0C4FA38BB05F0FF04C4F51F
:206A38008074B44288BF341C8DF800808DF80350280C8DF80100280A8DF8020000F05EFB24
:206A58006846042100F07CFA361B2D1920B93846214600F075FA18B100F048FBBDE8FC8113
:206A780000F044FB3F19002ED1D1BDE8FC81F8B5844640F6FF741CF8013B002210E0481BA0
:206A9800401E10F8015B7F1E01F8015BF9D103E01CF8010B01F8010B521C5B08082AEADA91
:206AB8005808F5D21CF8010B1CF8015B05F00F07FF1CC5F30315122F45EA001508D11CF89F
:206AD800016B300A24BF1CF8010B60F3DF16BF19AC42D4D1F8BDFEE7BCB5184DD5F8020003
:206AF800009000F00BFB0421684600F029FAF0B9114C0221204600F03BF9024600F0F6FA37
:206B1800BAB905F10800214607683FB102790B789A420AD142794B789A4206D14860006830
:206B3800002100B101210846BCBD0830ECE700F0DDFA0020BCBDC046040400206C71050007
:206B58001FB5154800788DF8040000F0D7FA134C2068026969464FF0804090470028F7D163
:206B780000F0C4FA00F0CAFA01A8012100F0E8F902A8012100F0FCF8024600F0B7FA002A3C
:206B980018BF6FF0010004D19DF808004008E9D2002000901FBDC0466C710500C4010010E8
:206BB8000246134898B570300168476D01F00103002007F004071F4318BF0120930802EA18
:206BD800000006D301F002040023204318BF01231846D20806D301F004010022084318BF01
:206BF80001221046002814BF0120022098BDC046D02008407CB515460E460446FFF7A0FF74
:206C180098B903208DF800008DF80340230C8DF80130200A8DF8020000F070FA68460421D8
:206C380000F08EF918B100F061FA00207CBD2846314600F09DF8024600F058FA002002B989
:206C580001207CBD1CB5AB208DF8020000F056FA01210DF1020000F073F9002400B90124DF
:206C780000F044FA9CB14FF4C870ADF80000BDF8000004E0BDF80000401EADF80000BDF85B
:206C980000000028F6D1FFF75BFF00B1002420461CBDFEE71149C8B570310A684E6D4108B6
:206CB80006D302F0010106F0040600270E4300D00127810805D3002117B1930828BF012191
:206CD8000F46C00805D3002017B1D10828BF01200746002F14BF01200220C8BDD02008408F
:206CF80010B54FF0805000F5DC74D0F8B8014169042088470420FFF7CDFF0128FAD12068E3
:206D1800C1694FF4A060884701210548054A016010688008FCD3044801604160816010BD35
:206D38002820086028200840141A4442B0B50C480C4DA84210D00C480C4CA0420CD0001BE6
:206D5800083CC71054F8080F017855F821206168401C90477F1EF5D100BF00BFB0BDC04646
:206D7800C4710500B8710500E8710500D8710500BCB50F1C054617D00C4C2068826800212E
:206D98004FF080409047002808BF4FF0FF300CD02068C26869464FF0804090479DF8000000
:206DB8007F1E05F8010BE8D10020BCBDC401001010B50446ADF1300D200308216A46FFF712
:206DD80019FF684600F016F9012808BF60B20DD0684600F0FBF8012808BF4FF0FF3005D033
:206DF800641CE4B22C2CE7DB6FF001000CB010BD10B50D480D49006800F00F0080020860A1
:206E1800FFF70AFA041C01D1FFF77DFDFFF738FDB4F1FF3F03D000F057F9002010BDFFF7FA
:206E38005FFF00F08DF9FEE7302403400004002010F1240F00F1240103DB1C28A8BF3F2193
:206E580000E00021032001F00F030F22A0EB2110C3F10F0102414FF6FF7343FA01F0024BCD
:206E780040EA02401860704718A00C40B0B54FF0805000F5EC74D0F8D801094D8168284644
:206E98008847C7B257B12068426800212846904720688168284688470028F9D13846B0BD67
:206EB800004003400A48001F006840090AD20948054B064A4430016803EA9120824208BF42
:206ED800012000D000207047F1FF0F00F0010700B44F00500C1300500B4880F30888094971
:206EF800086840F47000086000BF00BF00F02EF908B1FFF71BFF0020FFF77AFF012000F000
:206F180027F9C04688ED00E000400120FEB50D4606464FF0FF372C2430190C216A46FFF74A
:206F380069FE50B19DF80000012805D0019820B12418A542F0D800E0029F3846FEBD00002F
:206F58007CB50C1C06460FD0084D286816F8011B42684FF0804090472868C26869464FF05E
:206F780080409047641EF0D100207CBDC4010010F8B517460D46044600F0CFF8002600B1BC
:206F980001260020311C08BF012014F8011B7F1E05F8011BF9D108B100F0C5F8F8BD00009A
:206FB800094808B500788DF8000000F0A7F801216846FFF7C5FF024600F098F8002A14BFD0
:206FD8006FF00200002008BD6D710500084910B508300822083911F8013D10F8014DA34235
:206FF80018BF002002D1521EF5D1012010BDC046AC71050010B5074C0821083014F8012DB0
:2070180010F8013D9A4218BF002002D1491EF5D1012010BDAC71050006480C3000684BF6FC
:2070380041310001B1EB104F14BF4FF0FF3004207047C0460C13005070B50D460446FFF781
:2070580015FF0646610301221131284600F012F8304600F02BF870BD054B4FF4807101E06C
:20707800425C5A540A46511E002A89B2F8D170470003002008B5054B303B1B689B69984707
:20709800014A0021116008BD84046042D8010010D0F80300401EB0F1FF3F06D00022401EC5
:2070B80001F8012BB0F1FF3FF9D1704708B528B103480068426803480121904708BDC04631
:2070D800D80100100040034008B500F026F800204FF0FF320146FEF7F3FF08BD08B5FFF72B
:2070F800B7F9FFF7F9BEFFF74EFC08BD02494FF4801008607047C0469020024002484FF454
:20711800801110300160704790200240D0F80320C31D08461946FFF765BBEFF3108072B654
:20713800704700207047EFF3108062B670470020704708B5D0F800D04068804708BD000008
:147158000149402008607047902002400120704700BFFEE7EC
:20716C00050690FFFF00000000002000C215000000001000C214000000000800EF12000084
:20718C0000000400EF110000000000000000000043433133783252314F4144204E564D31B2
:0871AC000102000302000103CF
:2071B800876A050025710500A97005000000000002000000040100000001000004FFF0000D
:1071D800C871050000030020D071050004040020D8
:207FA80000008001100080FFFDFF58003AFFBBF3FFFFFFFFFFFFFFFFFFFFFFFFFFFFFFFF7E
:207FC800FFFFFFFFFFFFFFFFFFFFFFFFFFFFFFFFFFFFFF00FFFFFFFF00FFFFFF00C5C5FF2A
:187FE800000000FF00600500FFFFFFFFFFFFFFFFFFFFFFFFFFFFFFFF2D
:00000001FF
